{
  "contractName": "StudentGrades",
  "abi": [
    {
      "constant": true,
      "inputs": [],
      "name": "name",
      "outputs": [
        {
          "name": "",
          "type": "string"
        }
      ],
      "payable": false,
      "stateMutability": "view",
      "type": "function",
      "signature": "0x06fdde03"
    },
    {
      "constant": true,
      "inputs": [],
      "name": "totalSupply",
      "outputs": [
        {
          "name": "",
          "type": "uint256"
        }
      ],
      "payable": false,
      "stateMutability": "view",
      "type": "function",
      "signature": "0x18160ddd"
    },
    {
      "constant": true,
      "inputs": [],
      "name": "decimals",
      "outputs": [
        {
          "name": "",
          "type": "uint8"
        }
      ],
      "payable": false,
      "stateMutability": "view",
      "type": "function",
      "signature": "0x313ce567"
    },
    {
      "constant": true,
      "inputs": [
        {
          "name": "tokenOwner",
          "type": "address"
        }
      ],
      "name": "balanceOf",
      "outputs": [
        {
          "name": "balance",
          "type": "uint256"
        }
      ],
      "payable": false,
      "stateMutability": "view",
      "type": "function",
      "signature": "0x70a08231"
    },
    {
      "constant": true,
      "inputs": [
        {
          "name": "",
          "type": "uint256"
        }
      ],
      "name": "studentAccs",
      "outputs": [
        {
          "name": "",
          "type": "address"
        }
      ],
      "payable": false,
      "stateMutability": "view",
      "type": "function",
      "signature": "0x7209cfd3"
    },
    {
      "constant": false,
      "inputs": [],
      "name": "acceptOwnership",
      "outputs": [],
      "payable": false,
      "stateMutability": "nonpayable",
      "type": "function",
      "signature": "0x79ba5097"
    },
    {
      "constant": true,
      "inputs": [],
      "name": "owner",
      "outputs": [
        {
          "name": "",
          "type": "address"
        }
      ],
      "payable": false,
      "stateMutability": "view",
      "type": "function",
      "signature": "0x8da5cb5b"
    },
    {
      "constant": true,
      "inputs": [],
      "name": "symbol",
      "outputs": [
        {
          "name": "",
          "type": "string"
        }
      ],
      "payable": false,
      "stateMutability": "view",
      "type": "function",
      "signature": "0x95d89b41"
    },
    {
      "constant": false,
      "inputs": [
        {
          "name": "to",
          "type": "address"
        },
        {
          "name": "tokens",
          "type": "uint256"
        }
      ],
      "name": "transfer",
      "outputs": [
        {
          "name": "success",
          "type": "bool"
        }
      ],
      "payable": false,
      "stateMutability": "nonpayable",
      "type": "function",
      "signature": "0xa9059cbb"
    },
    {
      "constant": true,
      "inputs": [],
      "name": "newOwner",
      "outputs": [
        {
          "name": "",
          "type": "address"
        }
      ],
      "payable": false,
      "stateMutability": "view",
      "type": "function",
      "signature": "0xd4ee1d90"
    },
    {
      "constant": false,
      "inputs": [
        {
          "name": "_newOwner",
          "type": "address"
        }
      ],
      "name": "transferOwnership",
      "outputs": [],
      "payable": false,
      "stateMutability": "nonpayable",
      "type": "function",
      "signature": "0xf2fde38b"
    },
    {
      "anonymous": false,
      "inputs": [
        {
          "indexed": true,
          "name": "_from",
          "type": "address"
        },
        {
          "indexed": true,
          "name": "_to",
          "type": "address"
        }
      ],
      "name": "OwnershipTransferred",
      "type": "event",
      "signature": "0x8be0079c531659141344cd1fd0a4f28419497f9722a3daafe3b4186f6b6457e0"
    },
    {
      "anonymous": false,
      "inputs": [
        {
          "indexed": true,
          "name": "from",
          "type": "address"
        },
        {
          "indexed": true,
          "name": "to",
          "type": "address"
        },
        {
          "indexed": false,
          "name": "tokens",
          "type": "uint256"
        }
      ],
      "name": "Transfer",
      "type": "event",
      "signature": "0xddf252ad1be2c89b69c2b068fc378daa952ba7f163c4a11628f55a4df523b3ef"
    },
    {
      "constant": false,
      "inputs": [
        {
          "name": "_address",
          "type": "address"
        },
        {
          "name": "_name",
          "type": "string"
        },
        {
          "name": "_lastname",
          "type": "string"
        },
        {
          "name": "_fname",
          "type": "string"
        },
        {
          "name": "_mname",
          "type": "string"
        },
        {
          "name": "_birth_year",
          "type": "uint256"
        },
        {
          "name": "_register_year",
          "type": "uint256"
        },
        {
          "name": "_specialization",
          "type": "string"
        }
      ],
      "name": "setStudent",
      "outputs": [
        {
          "name": "succes",
          "type": "bool"
        }
      ],
      "payable": false,
      "stateMutability": "nonpayable",
      "type": "function",
      "signature": "0x514b0a37"
    },
    {
      "constant": true,
      "inputs": [
        {
          "name": "b",
          "type": "bytes32"
        }
      ],
      "name": "convertToInt",
      "outputs": [
        {
          "name": "",
          "type": "uint8"
        }
      ],
      "payable": false,
      "stateMutability": "pure",
      "type": "function",
      "signature": "0xfb579aa4"
    },
    {
      "constant": false,
      "inputs": [
        {
          "name": "_address",
          "type": "address"
        },
        {
          "name": "_grades",
          "type": "bytes32[]"
        }
      ],
      "name": "setStudentGrades",
      "outputs": [
        {
          "name": "",
          "type": "bool"
        }
      ],
      "payable": true,
      "stateMutability": "payable",
      "type": "function",
      "signature": "0x5ba0da29"
    },
    {
      "constant": true,
      "inputs": [
        {
          "name": "_address",
          "type": "address"
        }
      ],
      "name": "getStudent",
      "outputs": [
        {
          "name": "",
          "type": "string"
        },
        {
          "name": "",
          "type": "string"
        },
        {
          "name": "",
          "type": "string"
        },
        {
          "name": "",
          "type": "string"
        },
        {
          "name": "",
          "type": "uint256"
        },
        {
          "name": "",
          "type": "string"
        },
        {
          "name": "",
          "type": "uint256"
        }
      ],
      "payable": false,
      "stateMutability": "view",
      "type": "function",
      "signature": "0x6b7b44d7"
    },
    {
      "constant": true,
      "inputs": [
        {
          "name": "_address",
          "type": "address"
        }
      ],
      "name": "getGradesOfStudent",
      "outputs": [
        {
          "name": "",
          "type": "bytes32[]"
        },
        {
          "name": "",
          "type": "uint8[]"
        },
        {
          "name": "",
          "type": "uint256"
        },
        {
          "name": "",
          "type": "uint256"
        }
      ],
      "payable": false,
      "stateMutability": "view",
      "type": "function",
      "signature": "0x0c844743"
    }
  ],
  "bytecode": "0x6080604052336000806101000a81548173ffffffffffffffffffffffffffffffffffffffff021916908373ffffffffffffffffffffffffffffffffffffffff1602179055506040805190810160405280600481526020017f45435453000000000000000000000000000000000000000000000000000000008152506002908051906020019062000091929190620001fb565b506040805190810160405280600981526020017f556f4d20546f6b656e000000000000000000000000000000000000000000000081525060039080519060200190620000df929190620001fb565b506012600460006101000a81548160ff021916908360ff160217905550600460009054906101000a900460ff1660ff16600a0a62895440026005819055506005546006600073c88c9f9ee3ba588706532e9e4e52731c61949aa773ffffffffffffffffffffffffffffffffffffffff1673ffffffffffffffffffffffffffffffffffffffff1681526020019081526020016000208190555073c88c9f9ee3ba588706532e9e4e52731c61949aa773ffffffffffffffffffffffffffffffffffffffff16600073ffffffffffffffffffffffffffffffffffffffff167fddf252ad1be2c89b69c2b068fc378daa952ba7f163c4a11628f55a4df523b3ef600554604051620001ed9190620002bb565b60405180910390a3620002e2565b828054600181600116156101000203166002900490600052602060002090601f016020900481019282601f106200023e57805160ff19168380011785556200026f565b828001600101855582156200026f579182015b828111156200026e57825182559160200191906001019062000251565b5b5090506200027e919062000282565b5090565b620002a791905b80821115620002a357600081600090555060010162000289565b5090565b90565b620002b581620002d8565b82525050565b6000602082019050620002d26000830184620002aa565b92915050565b6000819050919050565b6120cd80620002f26000396000f3fe6080604052600436106100e6576000357c0100000000000000000000000000000000000000000000000000000000900463ffffffff16806306fdde03146100eb5780630c8447431461011657806318160ddd14610156578063313ce56714610181578063514b0a37146101ac5780635ba0da29146101e95780636b7b44d71461021957806370a082311461025c5780637209cfd31461029957806379ba5097146102d65780638da5cb5b146102ed57806395d89b4114610318578063a9059cbb14610343578063d4ee1d9014610380578063f2fde38b146103ab578063fb579aa4146103d4575b600080fd5b3480156100f757600080fd5b50610100610411565b60405161010d9190611e18565b60405180910390f35b34801561012257600080fd5b5061013d600480360361013891908101906119e9565b6104af565b60405161014d9493929190611daa565b60405180910390f35b34801561016257600080fd5b5061016b610773565b6040516101789190611ecc565b60405180910390f35b34801561018d57600080fd5b506101966107ce565b6040516101a39190611ee7565b60405180910390f35b3480156101b857600080fd5b506101d360048036036101ce9190810190611a6a565b6107e1565b6040516101e09190611dfd565b60405180910390f35b61020360048036036101fe9190810190611a12565b610b09565b6040516102109190611dfd565b60405180910390f35b34801561022557600080fd5b50610240600480360361023b91908101906119e9565b610d32565b6040516102539796959493929190611e3a565b60405180910390f35b34801561026857600080fd5b50610283600480360361027e91908101906119e9565b611233565b6040516102909190611ecc565b60405180910390f35b3480156102a557600080fd5b506102c060048036036102bb9190810190611bf9565b61127c565b6040516102cd9190611d8f565b60405180910390f35b3480156102e257600080fd5b506102eb6112ba565b005b3480156102f957600080fd5b50610302611459565b60405161030f9190611d8f565b60405180910390f35b34801561032457600080fd5b5061032d61147e565b60405161033a9190611e18565b60405180910390f35b34801561034f57600080fd5b5061036a60048036036103659190810190611b94565b61151c565b6040516103779190611dfd565b60405180910390f35b34801561038c57600080fd5b506103956116b7565b6040516103a29190611d8f565b60405180910390f35b3480156103b757600080fd5b506103d260048036036103cd91908101906119e9565b6116dd565b005b3480156103e057600080fd5b506103fb60048036036103f69190810190611bd0565b61177c565b6040516104089190611ee7565b60405180910390f35b60038054600181600116156101000203166002900480601f0160208091040260200160405190810160405280929190818152602001828054600181600116156101000203166002900480156104a75780601f1061047c576101008083540402835291602001916104a7565b820191906000526020600020905b81548152906001019060200180831161048a57829003601f168201915b505050505081565b6060806000806060600a60008773ffffffffffffffffffffffffffffffffffffffff1673ffffffffffffffffffffffffffffffffffffffff168152602001908152602001600020546040519080825280602002602001820160405280156105255781602001602082028038833980820191505090505b5090506060600a60008873ffffffffffffffffffffffffffffffffffffffff1673ffffffffffffffffffffffffffffffffffffffff168152602001908152602001600020546040519080825280602002602001820160405280156105985781602001602082028038833980820191505090505b50905060008090505b600a60008973ffffffffffffffffffffffffffffffffffffffff1673ffffffffffffffffffffffffffffffffffffffff168152602001908152602001600020548160ff16101561071057600760008973ffffffffffffffffffffffffffffffffffffffff1673ffffffffffffffffffffffffffffffffffffffff16815260200190815260200160002060008260ff1660ff16815260200190815260200160002054838260ff1681518110151561065357fe5b9060200190602002018181525050600860008973ffffffffffffffffffffffffffffffffffffffff1673ffffffffffffffffffffffffffffffffffffffff1681526020019081526020016000206007016000848360ff168151811015156106b657fe5b90602001906020020151815260200190815260200160002060009054906101000a900460ff16828260ff168151811015156106ed57fe5b9060200190602002019060ff16908160ff168152505080806001019150506105a1565b50600061071c88611233565b9050828282600b60008c73ffffffffffffffffffffffffffffffffffffffff1673ffffffffffffffffffffffffffffffffffffffff1681526020019081526020016000205496509650965096505050509193509193565b60006107c9600660008073ffffffffffffffffffffffffffffffffffffffff1673ffffffffffffffffffffffffffffffffffffffff1681526020019081526020016000205460055461178a90919063ffffffff16565b905090565b600460009054906101000a900460ff1681565b60008060009054906101000a900473ffffffffffffffffffffffffffffffffffffffff1673ffffffffffffffffffffffffffffffffffffffff163373ffffffffffffffffffffffffffffffffffffffff1614151561083e57600080fd5b610847896117a6565b151561085257600080fd5b87600860008b73ffffffffffffffffffffffffffffffffffffffff1673ffffffffffffffffffffffffffffffffffffffff16815260200190815260200160002060000190805190602001906108a8929190611866565b5086600860008b73ffffffffffffffffffffffffffffffffffffffff1673ffffffffffffffffffffffffffffffffffffffff16815260200190815260200160002060010190805190602001906108ff929190611866565b5085600860008b73ffffffffffffffffffffffffffffffffffffffff1673ffffffffffffffffffffffffffffffffffffffff1681526020019081526020016000206002019080519060200190610956929190611866565b5084600860008b73ffffffffffffffffffffffffffffffffffffffff1673ffffffffffffffffffffffffffffffffffffffff16815260200190815260200160002060030190805190602001906109ad929190611866565b5083600860008b73ffffffffffffffffffffffffffffffffffffffff1673ffffffffffffffffffffffffffffffffffffffff1681526020019081526020016000206004018190555081600860008b73ffffffffffffffffffffffffffffffffffffffff1673ffffffffffffffffffffffffffffffffffffffff1681526020019081526020016000206005019080519060200190610a4b929190611866565b5082600860008b73ffffffffffffffffffffffffffffffffffffffff1673ffffffffffffffffffffffffffffffffffffffff1681526020019081526020016000206006018190555060098990806001815401808255809150509060018203906000526020600020016000909192909190916101000a81548173ffffffffffffffffffffffffffffffffffffffff021916908373ffffffffffffffffffffffffffffffffffffffff160217905550506001905098975050505050505050565b60008060008060008090505b60028787905003811015610c765781806001019250506000610b4d8888600185018181101515610b4157fe5b9050602002013561177c565b905080600860008b73ffffffffffffffffffffffffffffffffffffffff1673ffffffffffffffffffffffffffffffffffffffff16815260200190815260200160002060070160008a8a868181101515610ba257fe5b90506020020135815260200190815260200160002060006101000a81548160ff021916908360ff1602179055508787838181101515610bdd57fe5b90506020020135600760008b73ffffffffffffffffffffffffffffffffffffffff1673ffffffffffffffffffffffffffffffffffffffff16815260200190815260200160002060006001860360ff1660ff168152602001908152602001600020819055508085019450610c668888600285018181101515610c5a57fe5b9050602002013561177c565b8401935050600381019050610b15565b508060ff16600a60008973ffffffffffffffffffffffffffffffffffffffff1673ffffffffffffffffffffffffffffffffffffffff168152602001908152602001600020819055508060ff168360ff16811515610ccf57fe5b0460ff16600b60008973ffffffffffffffffffffffffffffffffffffffff1673ffffffffffffffffffffffffffffffffffffffff16815260200190815260200160002081905550610d23878360ff1661151c565b50600193505050509392505050565b606080606080600060606000600860008973ffffffffffffffffffffffffffffffffffffffff1673ffffffffffffffffffffffffffffffffffffffff168152602001908152602001600020600001600860008a73ffffffffffffffffffffffffffffffffffffffff1673ffffffffffffffffffffffffffffffffffffffff168152602001908152602001600020600101600860008b73ffffffffffffffffffffffffffffffffffffffff1673ffffffffffffffffffffffffffffffffffffffff168152602001908152602001600020600201600860008c73ffffffffffffffffffffffffffffffffffffffff1673ffffffffffffffffffffffffffffffffffffffff168152602001908152602001600020600301600860008d73ffffffffffffffffffffffffffffffffffffffff1673ffffffffffffffffffffffffffffffffffffffff16815260200190815260200160002060040154600860008e73ffffffffffffffffffffffffffffffffffffffff1673ffffffffffffffffffffffffffffffffffffffff168152602001908152602001600020600501600860008f73ffffffffffffffffffffffffffffffffffffffff1673ffffffffffffffffffffffffffffffffffffffff16815260200190815260200160002060060154868054600181600116156101000203166002900480601f016020809104026020016040519081016040528092919081815260200182805460018160011615610100020316600290048015610fa35780601f10610f7857610100808354040283529160200191610fa3565b820191906000526020600020905b815481529060010190602001808311610f8657829003601f168201915b50505050509650858054600181600116156101000203166002900480601f01602080910402602001604051908101604052809291908181526020018280546001816001161561010002031660029004801561103f5780601f106110145761010080835404028352916020019161103f565b820191906000526020600020905b81548152906001019060200180831161102257829003601f168201915b50505050509550848054600181600116156101000203166002900480601f0160208091040260200160405190810160405280929190818152602001828054600181600116156101000203166002900480156110db5780601f106110b0576101008083540402835291602001916110db565b820191906000526020600020905b8154815290600101906020018083116110be57829003601f168201915b50505050509450838054600181600116156101000203166002900480601f0160208091040260200160405190810160405280929190818152602001828054600181600116156101000203166002900480156111775780601f1061114c57610100808354040283529160200191611177565b820191906000526020600020905b81548152906001019060200180831161115a57829003601f168201915b50505050509350818054600181600116156101000203166002900480601f0160208091040260200160405190810160405280929190818152602001828054600181600116156101000203166002900480156112135780601f106111e857610100808354040283529160200191611213565b820191906000526020600020905b8154815290600101906020018083116111f657829003601f168201915b505050505091509650965096509650965096509650919395979092949650565b6000600660008373ffffffffffffffffffffffffffffffffffffffff1673ffffffffffffffffffffffffffffffffffffffff168152602001908152602001600020549050919050565b60098181548110151561128b57fe5b906000526020600020016000915054906101000a900473ffffffffffffffffffffffffffffffffffffffff1681565b600160009054906101000a900473ffffffffffffffffffffffffffffffffffffffff1673ffffffffffffffffffffffffffffffffffffffff163373ffffffffffffffffffffffffffffffffffffffff1614151561131657600080fd5b600160009054906101000a900473ffffffffffffffffffffffffffffffffffffffff1673ffffffffffffffffffffffffffffffffffffffff166000809054906101000a900473ffffffffffffffffffffffffffffffffffffffff1673ffffffffffffffffffffffffffffffffffffffff167f8be0079c531659141344cd1fd0a4f28419497f9722a3daafe3b4186f6b6457e060405160405180910390a3600160009054906101000a900473ffffffffffffffffffffffffffffffffffffffff166000806101000a81548173ffffffffffffffffffffffffffffffffffffffff021916908373ffffffffffffffffffffffffffffffffffffffff1602179055506000600160006101000a81548173ffffffffffffffffffffffffffffffffffffffff021916908373ffffffffffffffffffffffffffffffffffffffff160217905550565b6000809054906101000a900473ffffffffffffffffffffffffffffffffffffffff1681565b60028054600181600116156101000203166002900480601f0160208091040260200160405190810160405280929190818152602001828054600181600116156101000203166002900480156115145780601f106114e957610100808354040283529160200191611514565b820191906000526020600020905b8154815290600101906020018083116114f757829003601f168201915b505050505081565b600061157082600660003373ffffffffffffffffffffffffffffffffffffffff1673ffffffffffffffffffffffffffffffffffffffff1681526020019081526020016000205461178a90919063ffffffff16565b600660003373ffffffffffffffffffffffffffffffffffffffff1673ffffffffffffffffffffffffffffffffffffffff1681526020019081526020016000208190555061160582600660008673ffffffffffffffffffffffffffffffffffffffff1673ffffffffffffffffffffffffffffffffffffffff1681526020019081526020016000205461184a90919063ffffffff16565b600660008573ffffffffffffffffffffffffffffffffffffffff1673ffffffffffffffffffffffffffffffffffffffff168152602001908152602001600020819055508273ffffffffffffffffffffffffffffffffffffffff163373ffffffffffffffffffffffffffffffffffffffff167fddf252ad1be2c89b69c2b068fc378daa952ba7f163c4a11628f55a4df523b3ef846040516116a59190611ecc565b60405180910390a36001905092915050565b600160009054906101000a900473ffffffffffffffffffffffffffffffffffffffff1681565b6000809054906101000a900473ffffffffffffffffffffffffffffffffffffffff1673ffffffffffffffffffffffffffffffffffffffff163373ffffffffffffffffffffffffffffffffffffffff1614151561173857600080fd5b80600160006101000a81548173ffffffffffffffffffffffffffffffffffffffff021916908373ffffffffffffffffffffffffffffffffffffffff16021790555050565b600081600190049050919050565b600082821115151561179b57600080fd5b818303905092915050565b600080600090505b60098054905081101561183f578273ffffffffffffffffffffffffffffffffffffffff166009828154811015156117e157fe5b9060005260206000200160009054906101000a900473ffffffffffffffffffffffffffffffffffffffff1673ffffffffffffffffffffffffffffffffffffffff161415611832576000915050611845565b80806001019150506117ae565b50600190505b919050565b6000818301905082811015151561186057600080fd5b92915050565b828054600181600116156101000203166002900490600052602060002090601f016020900481019282601f106118a757805160ff19168380011785556118d5565b828001600101855582156118d5579182015b828111156118d45782518255916020019190600101906118b9565b5b5090506118e291906118e6565b5090565b61190891905b808211156119045760008160009055506001016118ec565b5090565b90565b6000611917823561201a565b905092915050565b60008083601f840112151561193357600080fd5b8235905067ffffffffffffffff81111561194c57600080fd5b60208301915083602082028301111561196457600080fd5b9250929050565b6000611977823561202c565b905092915050565b600082601f830112151561199257600080fd5b81356119a56119a082611f2f565b611f02565b915080825260208301602083018583830111156119c157600080fd5b6119cc838284612040565b50505092915050565b60006119e18235612036565b905092915050565b6000602082840312156119fb57600080fd5b6000611a098482850161190b565b91505092915050565b600080600060408486031215611a2757600080fd5b6000611a358682870161190b565b935050602084013567ffffffffffffffff811115611a5257600080fd5b611a5e8682870161191f565b92509250509250925092565b600080600080600080600080610100898b031215611a8757600080fd5b6000611a958b828c0161190b565b985050602089013567ffffffffffffffff811115611ab257600080fd5b611abe8b828c0161197f565b975050604089013567ffffffffffffffff811115611adb57600080fd5b611ae78b828c0161197f565b965050606089013567ffffffffffffffff811115611b0457600080fd5b611b108b828c0161197f565b955050608089013567ffffffffffffffff811115611b2d57600080fd5b611b398b828c0161197f565b94505060a0611b4a8b828c016119d5565b93505060c0611b5b8b828c016119d5565b92505060e089013567ffffffffffffffff811115611b7857600080fd5b611b848b828c0161197f565b9150509295985092959890939650565b60008060408385031215611ba757600080fd5b6000611bb58582860161190b565b9250506020611bc6858286016119d5565b9150509250929050565b600060208284031215611be257600080fd5b6000611bf08482850161196b565b91505092915050565b600060208284031215611c0b57600080fd5b6000611c19848285016119d5565b91505092915050565b611c2b81611fbb565b82525050565b6000611c3c82611f75565b808452602084019350611c4e83611f5b565b60005b82811015611c8057611c64868351611cf6565b611c6d82611fa1565b9150602086019550600181019050611c51565b50849250505092915050565b6000611c9782611f80565b808452602084019350611ca983611f68565b60005b82811015611cdb57611cbf868351611d80565b611cc882611fae565b9150602086019550600181019050611cac565b50849250505092915050565b611cf081611fcd565b82525050565b611cff81611fd9565b82525050565b6000611d1082611f96565b808452611d2481602086016020860161204f565b611d2d81612082565b602085010191505092915050565b6000611d4682611f8b565b808452611d5a81602086016020860161204f565b611d6381612082565b602085010191505092915050565b611d7a81612003565b82525050565b611d898161200d565b82525050565b6000602082019050611da46000830184611c22565b92915050565b60006080820190508181036000830152611dc48187611c31565b90508181036020830152611dd88186611c8c565b9050611de76040830185611d71565b611df46060830184611d71565b95945050505050565b6000602082019050611e126000830184611ce7565b92915050565b60006020820190508181036000830152611e328184611d3b565b905092915050565b600060e0820190508181036000830152611e54818a611d05565b90508181036020830152611e688189611d05565b90508181036040830152611e7c8188611d05565b90508181036060830152611e908187611d05565b9050611e9f6080830186611d71565b81810360a0830152611eb18185611d05565b9050611ec060c0830184611d71565b98975050505050505050565b6000602082019050611ee16000830184611d71565b92915050565b6000602082019050611efc6000830184611d80565b92915050565b6000604051905081810181811067ffffffffffffffff82111715611f2557600080fd5b8060405250919050565b600067ffffffffffffffff821115611f4657600080fd5b601f19601f8301169050602081019050919050565b6000602082019050919050565b6000602082019050919050565b600081519050919050565b600081519050919050565b600081519050919050565b600081519050919050565b6000602082019050919050565b6000602082019050919050565b6000611fc682611fe3565b9050919050565b60008115159050919050565b6000819050919050565b600073ffffffffffffffffffffffffffffffffffffffff82169050919050565b6000819050919050565b600060ff82169050919050565b600061202582611fe3565b9050919050565b6000819050919050565b6000819050919050565b82818337600083830152505050565b60005b8381101561206d578082015181840152602081019050612052565b8381111561207c576000848401525b50505050565b6000601f19601f830116905091905056fea265627a7a723058207e93d4a767aaac232d7e6c2df6228680ce64ab6f9893ddd6ffed5379bf3904e26c6578706572696d656e74616cf50037",
  "source": "pragma solidity ^0.5.0;\r\npragma experimental ABIEncoderV2;\r\nimport \"./UoMtoken.sol\";\r\ncontract StudentGrades is UoMSupplyToken{\r\nstruct  Student { //Student characteristics\r\n    string  name;\r\n    string  lastname;\r\n    string fname;\r\n    string mname;\r\n    uint birth_year;\r\n    string specialization;\r\n    uint register_year;\r\n    mapping(bytes32 => uint8) grades; //the grades for each student. \r\n    /* it looks like that Student:\r\n    name:\"George\"\r\n    lastname:\"Michoulis\"\r\n    fname:\"D\"\r\n    mname:\"S\"\r\n    birth_year:19--\r\n    specialization:\"AI\"\r\n    register_year:\"2015\"\r\n    grades:{\"class1 (in bytes32)\":8, \"class2\":9, \"class3\":,5 ...}*/\r\n    \r\n}\r\nmapping(address => mapping(uint8=>bytes32)) NameOfStudentGrades; // usefull to keep in memory the student classes (only the names) indexed. \r\n\r\n\r\nmapping(address =>Student) students; //keep the studens in memory\r\naddress[] public studentAccs; // keep the address of the student. usefull to check if the students allready exists.\r\n\r\n\r\nmapping(address=>uint) CountOfGrades; //just to keep the number of the classes for a student.\r\n\r\n\r\n//take all the data that is needed to store a student in storage, and then store his address for validation purpose\r\nfunction  setStudent(address _address,string memory _name,string memory _lastname,string memory _fname,  string memory _mname,uint  _birth_year,uint  _register_year,string memory _specialization) public onlyOwner returns(bool succes) //its public because otherwise i can't give so many parameters in function\r\n{ require(IfNotStudentExists(_address));\r\n \r\n    students[_address].name=_name;\r\n    students[_address].lastname=_lastname;\r\n    students[_address].fname=_fname;\r\n    students[_address].mname=_mname;\r\n    students[_address].birth_year=_birth_year;\r\n    students[_address].specialization=_specialization;\r\n    students[_address].register_year=_register_year;\r\n    studentAccs.push(_address);\r\n    return true;\r\n    \r\n    \r\n    \r\n}\r\n function convertToInt(bytes32 b) public pure returns(uint8) { //bytes32 to uint and then to uin8 to be able to read it as natural number\r\n        return uint8(uint(b));\r\n    }\r\nmapping(address=>uint) AvgOfStuddent; //leep the avgs of students\r\n//setting the name of classes of the student and his grades.  create the average of his classes. summarize all the ects that he has and send them to his address\r\nfunction  setStudentGrades(address _address,bytes32[] calldata _grades) external payable returns(bool)  {\r\n    \r\n    uint8 avg;\r\n    uint8 ects;\r\n    uint8 count;\r\n    for(uint i=0;i<_grades.length-2; i+=3) \r\n    {   count++;\r\n        uint8 grade=convertToInt(_grades[i+1]);\r\n        students[_address].grades[_grades[i]]=uint8(grade);\r\n        NameOfStudentGrades[_address][count-1]=_grades[i];\r\n        avg+= uint8(grade);\r\n        ects+=convertToInt(_grades[i+2]);\r\n        \r\n       \r\n    }\r\n   \r\n    CountOfGrades[_address]=count;\r\n    AvgOfStuddent[_address]=avg/count;\r\n   transfer(_address,ects);\r\n   return true;\r\n    \r\n}\r\n//return's student's informations\r\nfunction getStudent(address _address) view external   returns(string memory,  string memory, string memory, string memory,uint, string memory,uint)\r\n{\r\n    return( students[_address].name, students[_address].lastname,students[_address].fname,students[_address].mname,students[_address].birth_year,students[_address].specialization,students[_address].register_year);\r\n}\r\n//return's student's grades, ects and his avg\r\nfunction getGradesOfStudent(address _address) view  external returns( bytes32[] memory ,uint8[] memory,uint,uint  ){\r\n    bytes32[] memory nameofgrades= new bytes32[](CountOfGrades[_address]);\r\n     uint8[] memory gradess=new uint8[](CountOfGrades[_address]); \r\n    for(uint8 i=0;i<CountOfGrades[_address];i++)\r\n    {\r\n            nameofgrades[i]=NameOfStudentGrades[_address][i];\r\n            gradess[i]=students[_address].grades[nameofgrades[i]];\r\n             \r\n    }\r\n    uint ects=UoMSupplyToken.balanceOf(_address);\r\n    return (nameofgrades,gradess,ects,AvgOfStuddent[_address]);\r\n}\r\n//check if students allready exist, if not then send true and let his infromations to be stored\r\nfunction IfNotStudentExists(address _address) internal view returns(bool){\r\n    for(uint i=0;i<studentAccs.length;i++)\r\n    {\r\n    if(studentAccs[i]==_address){\r\n        return false;\r\n    }\r\n}\r\n    return true;\r\n}\r\n\r\n}",
  "sourcePath": "C:/Users/Administrator/Desktop/New folder/contracts/StudentGrades.sol",
  "compiler": {
    "name": "solc",
    "version": "0.5.0+commit.1d4f565a.Emscripten.clang"
  },
  "schemaVersion": "3.0.2",
  "updatedAt": "2019-08-29T18:57:14.473Z",
  "devdoc": {
    "methods": {}
  },
  "userdoc": {
    "methods": {}
  }
}